:020000040800F2
:10000000C0040020010100086F130008531200080B
:100010006D13000899010008391500080000000060
:100020000000000000000000000000007313000842
:10003000A9010008000000007113000875130008F2
:100040001B0100081B0100081B0100081B01000820
:100050001B0100081B0100081B0100081B01000810
:100060001B0100081B0100081B0100081B01000800
:100070001B0100081B0100081B0100081B010008F0
:100080001B0100081B0100081B0100081B010008E0
:100090002D1500089D0100081B0100081B01000828
:1000A0001B0100081B0100081B0100081B010008C0
:1000B0001B0100081B0100081B0100081B010008B0
:1000C0001B0100081B0100081B0100081B010008A0
:1000D0001B0100081B0100081B0100081B01000890
:1000E0001B0100081B0100081B010008DFF80CD0F1
:1000F00000F040F80048004709170008C00400203D
:100100000648804706480047FEE7FEE7FEE7FEE7B1
:10011000FEE7FEE7FEE7FEE7FEE7FEE7C91300089D
:10012000ED000008D2B201E000F8012B491EFBD21D
:1001300070470022F6E710B513460A4604461946F2
:10014000FFF7F0FF204610BD30B50B4601460020FA
:100150002022012409E021FA02F59D4205D303FA89
:1001600002F5491B04FA02F52844151EA2F101020A
:10017000F1DC30BD064C074D06E0E06840F00103BD
:1001800094E8070098471034AC42F6D3FFF7B2FF6B
:1001900088170008A8170008FEE70000014800F0D3
:1001A00003B90000580000207047704790F82020E5
:1001B000012A07D0022A05D0416A41F48021416218
:1001C00001207047006842690A434261002070477D
:1001D00010B590F820300268012B07D0022B05D013
:1001E000416A41F480214162012010BDD2F8000231
:1001F00040F00100C2F80002087D00F01F0301205A
:100200009840D2F81C328343C2F81C32CB69B3B990
:10021000D2F80C328343C2F80C328C894B6864F3F9
:100220001F434C6902EBC404C4F840320C890B68CC
:1002300064F31F434C6902EBC404C4F84432CB6935
:10024000012B16D1D2F80C320343C2F80C320C88C1
:100250004B6864F31F434C6902EBC404C4F840329A
:100260000C89CB6864F31F434C6902EBC404C4F8E7
:1002700044328B69002BD2F804320FD053EA0003CA
:10028000C2F804320B69002BD2F8143208D00343B1
:10029000C2F81432096A012904D008E08343EFE769
:1002A0008343F5E7D2F81C120143C2F81C12D2F8BE
:1002B000000220F00100C2F80002002010BD7047CB
:1002C00030B590F82040012C05D0022C03D0416AB3
:1002D00041F480215DE00468002955D02469A40719
:1002E00054D04FF4D874056804EB01142D5915F05F
:1002F0000405956005682D594ED0ED0855600568D8
:100300002C5904F00204D4604FF4DA74056804EB4D
:1003100001142D5905F00F05156105682D59C5F318
:100320000725956105682C59240C54614FF4DC7243
:10033000046802EB0112A4581C700468A458240A33
:100340005C700468A458240C9C700468A258120EB7
:10035000DA704FF4DE72046802EB0112A4581C71CB
:100360000468A458240A5C710468A458240C9C7185
:100370000468A258120EDA71006881B1016941F077
:1003800020010161002030BDE468A8E7416A41F422
:1003900000114162012030BD6D0D1560AFE7C168ED
:1003A00041F02001C160EDE72DE9F05F05460068EE
:1003B00000244669D0F804908768D0F80CB0D0F8D3
:1003C00010A0D0F81880F10748D0F90714D0012107
:1003D0008160B80703D5284600F031FA0CE07807B1
:1003E00002D54FF4006407E0380702D54FF480547B
:1003F00002E0284600F022FAF80516D529684FF4E5
:1004000080708860B80503D5284600F01AFA0CE021
:10041000780502D544F4005407E0380502D544F4C9
:10042000804402E0284600F00BFAF80316D529684C
:100430004FF480308860B80303D5284600F003FAF3
:100440000CE0780302D544F4004407E0380302D5F9
:1004500044F4803402E0284600F0F4F9300707D570
:100460005FEACB6004D52968102044F40074C860AA
:1004700070074FF0080707D55FEA0B7004D52868AE
:10048000C760284600F05AF9B00706D52868C0684A
:10049000800702D0284600F053F9700607D55FEABE
:1004A000CA6004D52968102044F480640861B0064D
:1004B00007D55FEA0A7004D528680761284600F06E
:1004C0008DF9F00606D528680069800702D0284615
:1004D00000F085F9B00308D55FEAC96005D5296841
:1004E00010204860284600F07BF9F00307D55FEA4A
:1004F000097004D528684760284600F0A5F9300443
:1005000046D55FEA497040D5F00504D55FEAC8706A
:1005100001D044F00104B00504D55FEA887001D52C
:1005200044F00204700504D55FEA487001D544F038
:100530000404300529D518F0700F26D008F070009B
:10054000402815D006DC102809D020280AD03028F1
:1005500016D10AE050280ED0602811D10EE044F0E8
:1005600008040DE044F010040AE044F0200407E021
:1005700044F0400404E044F0800401E044F480745A
:100580002868816921F07001816129680420486030
:10059000002C05D0686A204368622846FFF78FFE6A
:1005A000BDE8F09F70B5040003D094F8200010B1AE
:1005B00004E0012070BD204600F082F82068016848
:1005C00021F00201016000F04FFA0546052604E023
:1005D00000F04AFA401B0A2811D8206840688007BA
:1005E000F6D42068016841F00101016000F03CFA96
:1005F00005460BE000F038FA401B0A2806D9606A6D
:1006000040F40030606284F82060D2E720684068DF
:10061000C007EFD0207E0128206801683DD021F07E
:1006200080010160607E01282068016838D021F0D7
:1006300040010160A07E01282068016833D021F0CC
:1006400020010160E07E0128206801682ED041F081
:1006500010010160207F01282068016829D021F065
:1006600008010160607F01282068016824D021F022
:1006700004010160D4E902010843D4E904121143E2
:1006800008436168491E08432168C8610020606210
:10069000012084F82000002070BD41F08001C0E7F7
:1006A00041F04001C5E741F02001CAE721F0100107
:1006B000CFE741F00801D4E741F00401D9E7000099
:1006C00010B586B00021009101910291039100685C
:1006D000174988422AD11748C16941F00071C161A8
:1006E000C16901F000710491816941F004018161E7
:1006F0008069114C00F0040004904FF400600090F9
:100700006946204600F0B4F8A01400900220019041
:10071000032003906946204600F0AAF80022114603
:10072000142000F00DFA142000F0FCF906B010BD02
:1007300000640040001002400008014070470000C3
:1007400070B5054600681549884226D1144B002132
:10075000A3F11C022846FFF7B3FD00281DD1104C61
:1007600010491C3C6068884211D180210E4800F07D
:100770006FF90EA000F0E2FE607F217FA27F00EB08
:1007800001200A21B0FBF1F10EA000F0D7FE2846AF
:10079000BDE870400221FFF709BD70BD0064004054
:1007A00050000020AABB1018000C01405265636580
:1007B000697665205375636365737366756C210D87
:1007C0000A0000004341503D202564414820534F1A
:1007D000433D25642525200D0A0000007047704721
:1007E0007047000070B5044690F82000012804D03E
:1007F000606A40F40020606218E0022084F8200063
:100800002068016821F00101016000F02DF9054622
:100810000EE000BF00F028F9401B0A2808D9606AE2
:1008200040F400306062052084F82000012070BD93
:1008300020684068C007EDD1606270BD70477047A6
:1008400070477047704770477047000070B50446A6
:1008500000F00AF90546601C02D004480078044400
:1008600000F002F9401BA042FAD370BD0000002046
:100870002DE9F84FDFF8B891002409F1040A0AF1D4
:10088000040B23460F270BF1040EC9E00125A540F8
:100890002A40AA427DD1674ED1F804C0ACEB0608CD
:1008A000B44532D014DCBCF1030F3AD009DCBCF102
:1008B000000F2AD0BCF1010F1CD0BCF1020F31D1C6
:1008C0001DE0BCF1110F17D0BCF1120F2AD119E0B5
:1008D000B8F5881F19D006DCB8F5803F15D0B8F5FB
:1008E000801F1FD111E0B8F5001F0ED0B8F5041F0E
:1008F00018D10AE0CB6815E0CB681B1D12E0CB686D
:1009000008330FE0CB680C330CE08B682BB1012B64
:100910004FF0080303D0456104E0042302E00561C1
:1009200000E00023FF2A01D8064601E000F104069A
:100930004FEA840501D9A5F12005D6F8008007FA11
:1009400005FC28EA0C0803FA05F548EA0508C6F88C
:1009500000804D68ED0062D5374DAE6946F0010666
:10096000AE61AD6924F0030605F001050095334D35
:1009700006EB050CDCF80850A607360F07FA06F858
:1009800025EA0805DFF8B880404503D14FF000089C
:1009900017E044E0DFF8AC80404502D14FF0010899
:1009A0000FE0DFF8A480404502D14FF0020808E0D4
:1009B000DFF89880404502D14FF0030801E04FF086
:1009C000040808FA06F848EA0508CCF808804D68DB
:1009D000D9F80060ED034D4601D5164300E096437B
:1009E0002E604D68DAF80060AD03554601D5164318
:1009F00000E096432E604D68DBF80060ED025D4636
:100A000001D5164300E096432E604D68DEF8006085
:100A1000AD02754601D5164300E096432E60641C76
:100A20000D682A46E5407FF431AFBDE8F88F00003D
:100A300000040140000011100010024000000140BD
:100A400000080140000C014000100140001401406A
:100A5000C2680A4201D041617047016170470AB122
:100A6000016170470904FBE7014880687047000096
:100A700000000020024881680278114481607047BC
:100A800000000020074810B5016841F01001016026
:100A9000032000F075F8002000F006F800F024F8BC
:100AA000002010BD0020024070B50D4D04464FF4EB
:100AB0007A712878B1FBF0F00A490968B1FBF0F0CF
:100AC00000F0ECFA48B9102C07D200222146501E43
:100AD00000F036F800206C6070BD012070BD000091
:100AE000000000200C0000200C4808B5816941F08E
:100AF00001018161816901F001010091C16941F049
:100B00008051C161C06900F0805000900448416884
:100B100021F0E06141F00071416008BD0010024029
:100B200000000140002809DB00F01F020121914074
:100B30004009800000F1E020C0F80011704700007B
:100B4000F0B40E4B1B680C46C3F30223C3F1070538
:100B5000042D00D90425191D072901D2002300E026
:100B6000DB1E012606FA05F1491E214099409E40F0
:100B7000761E16403143F0BC00F0F0BC0CED00E0F6
:100B8000064900F0070208684FF6FF03184040EAE4
:100B90000220034A10430860704700000CED00E09B
:100BA0000000FA052DE9F0470F46050061D0434EDD
:100BB000306800F00700B84209D2306820F0070022
:100BC00038433060306800F00700B84251D12868DF
:100BD0003B4C810712D5400703D5606840F4E060C4
:100BE00060602878000703D5606840F4605060605A
:100BF0006068A96820F0F000084360602878C007AA
:100C000028D06868012810D02168022810D08907F0
:100C100000292EDA616821F0030101436160FFF7CA
:100C200023FF804641F288390DE021688903EFE710
:100C30008901EDE7FFF718FFA0EB0801494502D94C
:100C40000320BDE8F0876068696800F00C00B0EB35
:100C5000810FEFD1306800F00700B8420BD930683F
:100C600020F0070038433060306800F00700B842D9
:100C700001D00120E5E72878400705D56068E968DC
:100C800020F4E060084360602878000706D56068BB
:100C9000296920F4605040EAC100606000F038F833
:100CA0006168084AC1F30311515CC84006490860F5
:100CB00006480068FFF7F8FE0020C2E70020024067
:100CC00000100240701700080C00002004000020F3
:100CD0000448054900684968044AC1F30221515C8F
:100CE000C84070470C000020001002408017000828
:100CF0000448054900684968044AC1F3C221515CAF
:100D0000C84070470C000020001002408017000807
:100D100012A185B00FC98DE80F0014A0144A006815
:100D200004905168134801F00C03042B10D0082BD9
:100D30000ED1C1F38343C9031DF803000AD55168DE
:100D400004AAC1F34041515C0A4A5043B0FBF1F0A0
:100D500005B0704708494843FAE70000020304055C
:100D6000060708090A0B0C0D0E0F101001020000F7
:100D70000010024000127A0000093D002DE9F84FF2
:100D8000040070D02078C04DC00749D06868C0F317
:100D90008100012807D06868C0F38100022809D1CA
:100DA0006868C00306D52868800339D560680028C4
:100DB000E7D035E06068B0F5803F0BD010B1B0F5FA
:100DC000A02F11D0286820F480302860286820F4F3
:100DD000802002E0286840F480302860606890B18C
:100DE000FFF742FE06460AE0286840F480202860AB
:100DF000F0E700BFFFF738FE801B642873D828682F
:100E00008003F7D50CE0FFF72FFE064605E000BF94
:100E1000FFF72AFE801B6428F0D828688003F7D4E7
:100E200020789A4E80074FF001094FF0000839D51D
:100E3000686810F00C0F07D06868C0F381000228C2
:100E400009D16868C00306D42868800714D52069D2
:100E5000012808D110E02069B0B1C6F80090FFF772
:100E600003FE074605E00AE1FFF7FEFDC01B02286E
:100E7000C4D828688007F7D52868616920F0F80091
:100E800040EAC10028600DE0C6F80080FFF7ECFDE5
:100E9000074604E0FFF7E8FDC01B022823D82868B6
:100EA0008007F7D4207800072CD57948A169D9B1FB
:100EB000C0F80090FFF7D8FD074604E0FFF7D4FD27
:100EC000C01B02280FD8686A8007F7D571484FF415
:100ED000FA510068B0FBF1F0009000BF0098411E8D
:100EE0000091FAD20EE080E0C0F80080FFF7BCFD70
:100EF000074604E0FFF7B8FDC01B022875D8686AF2
:100F00008007F7D42078400760D5E8690027C00043
:100F100008D4E86940F08050E861E869012700F0F2
:100F2000805000905C480168C90513D4016883466D
:100F300041F480710160FFF797FD824606E000BF33
:100F4000FFF792FDA0EB0A0064284ED8DBF8000002
:100F5000C005F5D5E06801280AD008B1052813D0EE
:100F6000286A20F001002862286A20F0040002E0CC
:100F7000286A40F001002862E06841F2883B98B19D
:100F8000FFF772FD82460BE0286A40F004002862F9
:100F9000EEE700BFFFF768FDA0EB0A0159455AD8FC
:100FA000286A8007F6D50CE0FFF75EFD824605E073
:100FB000FFF75AFDA0EB0A0159454CD8286A800773
:100FC000F6D41FB1E86920F08050E861E06988B389
:100FD0006968C1F38101022944D00228C6F8608003
:100FE00004D0FFF741FD044638E034E0FFF73CFD54
:100FF000074604E0FFF738FDC01B02282BD82868FD
:101000008001F7D4206AB0F5803F05D16868A168F7
:1010100020F4003008436860D4E908010843696897
:1010200021F4741108436860C6F86090FFF71CFD56
:10103000044606E025E000BFFFF716FD001B02286E
:1010400009D828688001F7D51BE000BFFFF70CFD29
:10105000001B022802D90320BDE8F88F2868800110
:10106000F4D40EE00128F7D06868226A00F48031D9
:10107000914204D1616A00F47010884201D00120CD
:10108000EAE70020E8E700000010024000004242CA
:10109000800442420C0000200070004010B5401E49
:1010A000B0F1807F01D3012010BD4FF0E0246061DA
:1010B0000F21601700F052FA0020A0610720206184
:1010C000002010BD70B5040004D094F8390000254C
:1010D00010B106E0012070BD84F83850204600F0C1
:1010E00023F8242084F839002068C16821F40051D5
:1010F000C160204600F08CF92068016921F490411C
:1011000001612068416921F02A0141612068C168BC
:1011100041F40051C160E563202084F8390084F86F
:101120003A00002070BD000030B585B00024009466
:1011300001940294039400681449884224D114480D
:10114000816941F480418161816901F480410491A8
:10115000816941F00401816180690E4D00F0040055
:1011600004904FF40070009002200190032003903F
:1011700069462846FFF77CFB2815CDE9000469463F
:1011800028460294FFF774FB05B030BD00380140DB
:1011900000100240000801402DE9F843044690F891
:1011A00039001F4616460D46202850D1A5B19EB1E4
:1011B00094F8380001284AD0012084F838004FF014
:1011C0000008C4F83C80212084F83900FFF74CFC6B
:1011D000A6848146E68426E00120BDE8F883E08C01
:1011E000401EE084A0684B46B0F5805F4FF00002DF
:1011F0004FF080012046009703D000F065F9E8B970
:101200000DE000F061F9C8B928882168C0F3080032
:101210004860206908B16D1C05E0AD1C03E0216841
:1012200015F8010B4860E08C0028D8D14B4600220D
:1012300040212046009700F047F908B10320CCE791
:10124000202084F8390084F838800020C5E7022087
:10125000C3E7FEE710B51A488AB0184901600C21AF
:101260000024C0E901144FF48021C0E903414FF488
:10127000A0014161047644768476C476047744778D
:10128000FFF790F908B1FEF790FF0120CDE9064085
:1012900003940494CDE90804059400940194029405
:1012A00069460748FEF794FF0548FFF79BFA0221BD
:1012B0000348FEF77BFF0AB010BD00000064004049
:1012C0005800002030B585B00024184800940194DF
:1012D00002940394816941F020018161816901F0E8
:1012E00020010491816941F004018161816901F06B
:1012F00004010491816941F00801816180690C4D0C
:1013000000F0080004900022C0212846FFF7A7FB48
:10131000C02000900120CDE901040220039069461D
:101320002846FFF7A5FA05B030BD000000100240C6
:10133000000C01400C4810B50A4901604FF4E1313E
:101340004160002181600C22C160C0E9041281610A
:10135000C161FFF7B7FE002803D0BDE81040FEF7DB
:1013600024BF10BD0038014080000020FEE7704718
:1013700070477047FFF77EBB30B58FB028216846B5
:10138000FEF7D7FE14210AA8FEF7D3FE01210804B8
:10139000CDE900100024029402250491CDE9075004
:1013A0004FF4E01009906846FFF7E8FC0F20CDE904
:1013B0000A056802CDE90C4002210AA80E94FFF745
:1013C000F1FB0FB030BD00000D48016841F0010194
:1013D000016041680B4A1140416001680A4A1140AE
:1013E0000160016821F480210160416821F4FE015F
:1013F00041604FF41F0181600449C00308607047D9
:10140000001002400000FFF8FFFFF6FE08ED00E0CC
:101410002DE9F041044600680169E26821F4405179
:10142000114301612169A06808436169084321688B
:10143000CA6841F20C639A430243CA60206841695A
:10144000A26921F44071114341611E49206864255D
:101450003226884202D1FFF74BFC01E0FFF738FC4F
:1014600000EBC00101EB001160686FF0180780000D
:10147000B1FBF0F2B2FBF5F2B1FBF0F37A4303EB10
:101480008202B1FBF0F306EB0212B2FBF5F2B3FB02
:10149000F5F302F0F00202EB0312B1FBF0F3B1FB43
:1014A000F0F0B0FBF5F0784303EB800006EB0010A2
:1014B000B0FBF5F0216800F00F0010448860BDE833
:1014C000F0810000003801402DE9F04198461746B0
:1014D0000E460446069D1DE0681C1BD02DB1FFF78B
:1014E000C3FAA0EB0800A84214D92068C16821F40F
:1014F000D071C1602068416921F001014161202063
:1015000084F8390084F83A00002084F83800032079
:10151000BDE8F0812068006836EA000004D00020B1
:10152000B842D9D00020F3E70120F9E70148FEF7DF
:101530003BBF000058000020FEE700000FB4054B41
:1015400010B503A9044A029800F028F810BC5DF811
:1015500014FB0000F1160008100000200907090E16
:10156000002804DB00F1E02080F80014704700F050
:101570000F0000F1E02080F8141D704702E008C859
:10158000121F08C1002AFAD170477047002001E0FD
:1015900001C1121F002AFBD1704700002DE9FF4F47
:1015A00089B09B460446002506E025280BD05A4604
:1015B0000B999047641C6D1C20780028F5D10DB064
:1015C0002846BDE8F08F0027B8460122474900E0D1
:1015D000074314F8013F203B02FA03F00842F7D119
:1015E00020782E2819D114F8010F47F004072A2873
:1015F0000ED06FF02F022078A0F1300109290CD80D
:1016000008EB880102EB410100EB0108641CF2E7E2
:101610000A98641C50F8048B0A9020780028CED0D9
:10162000642808D0692806D075281ED05A460B9920
:1016300090476D1C58E00A994FF00A0901C90A91B8
:10164000002802DA40422D2102E0390504D52B2181
:101650008DF82010012103E0F90704D02021F7E7DD
:101660008A4608AE0DE00021FAE70A994FF00A0910
:1016700001C90A91F7E74946FEF766FD303106F8E1
:10168000011D0028F7D1ADEB060000F12009780715
:1016900001D44FF00108C84502DDA8EB090000E0C5
:1016A00000208046002706E008A85A46C05D0B9936
:1016B00090476D1C7F1C5745F6DB04E030205A46EE
:1016C0000B9990476D1CB8F10001A8F10108F5DCF9
:1016D00005E016F8010B5A460B9990476D1CB9F1BD
:1016E0000001A9F10109F4DC641C65E70928010087
:1016F00013B54FF6FF73012269460248FFF74CFD10
:1017000000981CBD80000020FFF7BCF9FFF734FEF5
:10171000FFF7D8FDFFF79EFDFFF70CFE0CA0FFF7CB
:101720000DFF11480F49114C41600021C160042197
:101730008160022101220161427581754FF4FA75C1
:1017400040212046FFF784F92846FFF77FF8F7E7A6
:1017500057656C636F6D6520546F2041482D594467
:10176000210D0A00BBAA101814000020000C014033
:101770000000000000000000010203040607080941
:101780000000000001020304A81700080000002068
:10179000140000007C150008BC170008140000208D
:1017A000AC0400008C1500080100000010000000CF
:0C17B000000000000024F4000000000015
:04000005080000ED02
:00000001FF
